S0160000756C7472612D736F6E69635F30312E73726563DD
S11300000C942A000C9447000C9471010C94470042
S11300100C9447000C9447000C9447000C94470040
S11300200C9447000C9447000C9447000C94470030
S11300300C9447000C9447000C9447000C94470020
S11300400C9447000C9447000C9447000C94470010
S11300500C94470011241FBECFE5D8E0DEBFCDBF0E
S113006010E0A0E6B0E0E0E0F4E002C005900D92FC
S1130070AA37B107D9F720E0AAE7B0E001C01D9282
S1130080AE37B207E1F70E9402010C94FE010C9412
S113009000009BB39F70282F207F922B9BBB9BB3A8
S11300A09E7F9BBB9BB392609BBB35E03A95F1F777
S11300B000009BB39D7F9BBBEFE1F3E03197F1F729
S11300C000C000002BB3F0E18F9FC0011124922FD8
S11300D09F70892B8BBB8BB382608BBB35E03A95C9
S11300E0F1F700008BB38D7F8BBB8FE39FE101970A
S11300F0F1F700C0000008959BB39F70282F207F64
S1130100922B9BBB9BB391609BBB9BB392609BBBAD
S113011035E03A95F1F700009BB39D7F9BBBEFE17F
S1130120F3E03197F1F700C000002BB3F0E18F9FAB
S1130130C0011124922F9F70892B8BBB8BB38260DB
S11301408BBB35E03A95F1F700008BB38D7F8BBB09
S11301508FE39FE10197F1F700C0000008958FEF4E
S11301608ABB2FEF89EF90E0215080409040E1F767
S113017000C0000082E00E94490088E20E94490019
S11301808CE00E94490086E00E94490081E00E94C0
S113019049008FE39FE10197F1F700C00000089543
S11301A00F931F93CF93DF938C01C0E0D0E003C083
S11301B00E947C002196F801EC0FFD1F80818111C3
S11301C0F7CFDF91CF911F910F910895CF93DF93D4
S11301D0EA01811108C0603130F4862F8F70806885
S11301E00E94490009C0813039F4603128F4862F17
S11301F08F70806C0E944900CE010E94D000DF9174
S1130200CF910895CF93DF93CDB7DEB760970FB644
S1130210F894DEBF0FBECDBF0E94AF000E943E0126
S113022078940E9452018C0140E650E060E080E046
S11302300E94E6004AE0BE016F5F7F4FC8010E9442
S1130240C9014BE650E060E081E00E94E600AE01A7
S11302504F5F5F4F69E081E00E94E60046E750E0AF
S11302606DE081E00E94E6002FEF83EC99E02150DD
S113027080409040E1F700C00000D3CF87B3806492
S113028087BB2FEF80E792E0215080409040E1F758
S113029000C000008BB780688BBF85B7846085BFC2
S11302A01FBC089588B3806488BB8AE68A95F1F7F9
S11302B000C088B38F7B88BB80917C0090917D00C7
S11302C0892BD1F380917C0090917D0010927D0068
S11302D010927C0060EA73E00E94A101CB010196B8
S11302E008951F920F920FB60F9211248F939F932C
S11302F080917A0090917B00019769F41EBC8CB5C3
S11303009DB590937D0080937C001DBC1CBC109215
S11303107B0010927A0080917A0090917B00892B67
S113032049F48EB581608EBD81E090E090937B00AE
S113033080937A009F918F910F900FBE0F901F9022
S1130340189597FB072E16F4009407D077FD09D073
S11303500E94B50107FC05D03EF4909581959F4F0E
S11303600895709561957F4F0895AA1BBB1B51E1B9
S113037007C0AA1FBB1FA617B70710F0A61BB70B11
S1130380881F991F5A95A9F780959095BC01CD01B6
S11303900895BB274A3031F4992322F4BDE29095A5
S11303A081959F4F0C94D501BB27FB015527AA27A4
S11303B0880F991FAA1FA41710F0A41B83955051EE
S11303C0B9F7A05DAA3308F0A95DA193009779F766
S11303D0B111B1931192CB010C94EE01DC01FC013B
S11303E0672F71917723E1F7329704C07C916D9365
S11303F070836291AE17BF07C8F30895F894FFCFD6
S1130400556C747261736F6E6963004469737461CF
S10D04106E63653D2000636D00007B
S9030000FC
