:100000000C942A000C9447000C9447000C94700147
:100010000C9447000C949E010C9447000C944700EC
:100020000C9447000C9447000C9447000C94470034
:100030000C9447000C9447000C9447000C94470024
:100040000C9447000C9447000C9447000C94470014
:100050000C94470011241FBECFE5D8E0DEBFCDBF12
:1000600010E0A0E6B0E0EEE1F7E002C005900D92EE
:10007000AA37B107D9F720E0AAE7B0E001C01D9286
:10008000AE37B207E1F70E9402010C948D030C9485
:1000900000009BB39F70282F207F922B9BBB9BB3AC
:1000A0009E7F9BBB9BB392609BBB35E03A95F1F77B
:1000B00000009BB39D7F9BBBEFE1F3E03197F1F72D
:1000C00000C000002BB3F0E18F9FC0011124922FDC
:1000D0009F70892B8BBB8BB382608BBB35E03A95CD
:1000E000F1F700008BB38D7F8BBB8FE39FE101970E
:1000F000F1F700C0000008959BB39F70282F207F68
:10010000922B9BBB9BB391609BBB9BB392609BBBB1
:1001100035E03A95F1F700009BB39D7F9BBBEFE183
:10012000F3E03197F1F700C000002BB3F0E18F9FAF
:10013000C0011124922F9F70892B8BBB8BB38260DF
:100140008BBB35E03A95F1F700008BB38D7F8BBB0D
:100150008FE39FE10197F1F700C0000008958FEF52
:100160008ABB2FEF89EF90E0215080409040E1F76B
:1001700000C0000082E00E94490088E20E9449001D
:100180008CE00E94490086E00E94490081E00E94C4
:1001900049008FE39FE10197F1F700C00000089547
:1001A0000F931F93CF93DF938C01C0E0D0E003C087
:1001B0000E947C002196F801EC0FFD1F80818111C7
:1001C000F7CFDF91CF911F910F910895CF93DF93D8
:1001D000EA01811108C0603130F4862F8F70806889
:1001E0000E94490009C0813039F4603128F4862F1B
:1001F0008F70806C0E944900CE010E94D000DF9178
:10020000CF910895CF93DF93CDB7DEB760970FB648
:10021000F894DEBF0FBECDBF0E94AF000E94350133
:1002200078940E9443018C0140E650E060E080E059
:100230000E94E6004AE0BE016F5F7F4FC8010E9446
:1002400058034BE650E060E081E00E94E600AE011A
:100250004F5F5F4F6AE081E00E94E60046E750E0B2
:100260006DE081E00E94E600DCCF87B3806887BB49
:100270008BB780628BBF84B7806484BF89B780648A
:1002800089BF15BC089588B3806888BB80E58A95CE
:10029000F1F788B38F7788BB80917A0090917B00CB
:1002A000892BD1F360917A0070917B0010927B00D2
:1002B00010927A00072E000C880B990B0E94CC023A
:1002C00023E333E349E654E40E94220220E030E0D5
:1002D00040E85FE30E94B6010E949402CB010895BA
:1002E0001F920F920FB60F9211242F938F939F930B
:1002F00004B606FE07C085B5816085BD84B78F7BD7
:1003000084BF10C015BC24B580917C0090917D0005
:10031000820F911D90937B0080937A0014BC84B768
:10032000806484BF10927D0010927C009F918F9119
:100330002F910F900FBE0F901F9018951F920F9244
:100340000FB60F9211248F939F9380917C00909110
:100350007D00939590937D0080937C009F918F9179
:100360000F900FBE0F901F9018955058BB27AA27CB
:100370000E94CD010C941E030E94100338F00E94CD
:10038000170320F039F49F3F19F426F40C940D0361
:100390000EF4E095E7FB0C940703E92F0E942F036E
:1003A00058F3BA17620773078407950720F079F4AA
:1003B000A6F50C9451030EF4E0950B2EBA2FA02D48
:1003C0000B01B90190010C01CA01A0011124FF2702
:1003D000591B99F0593F50F4503E68F11A16F040FD
:1003E000A22F232F342F4427585FF3CF46953795FC
:1003F0002795A795F0405395C9F77EF41F16BA0BC1
:10040000620B730B840BBAF09150A1F0FF0FBB1F6E
:10041000661F771F881FC2F70EC0BA0F621F731FB7
:10042000841F48F4879577956795B795F7959E3F14
:1004300008F0B0CF9395880F08F09927EE0F9795A5
:10044000879508950E9436020C941E030E9417039C
:1004500058F00E94100340F029F45F3F29F00C94FB
:10046000070351110C9452030C940D030E942F03A7
:1004700068F39923B1F3552391F3951B550BBB27D3
:10048000AA2762177307840738F09F5F5F4F220F18
:10049000331F441FAA1FA9F335D00E2E3AF0E0E80F
:1004A00032D091505040E695001CCAF72BD0FE2F59
:1004B00029D0660F771F881FBB1F261737074807ED
:1004C000AB07B0E809F0BB0B802DBF01FF279358A5
:1004D0005F4F3AF09E3F510578F00C9407030C945F
:1004E00052035F3FE4F3983ED4F386957795679582
:1004F000B795F7959F5FC9F7880F911D96958795DA
:1005000097F90895E1E0660F771F881FBB1F6217F8
:1005100073078407BA0720F0621B730B840BBA0BB6
:10052000EE1F88F7E09508950E949B026894B11130
:100530000C94520308950E94370388F09F5798F057
:10054000B92F9927B751B0F0E1F0660F771F881FD8
:10055000991F1AF0BA95C9F714C0B13091F00E94F2
:100560005103B1E008950C945103672F782F882729
:10057000B85F39F0B93FCCF3869577956795B39519
:10058000D9F73EF490958095709561957F4F8F4F88
:100590009F4F0895E89409C097FB3EF4909580958D
:1005A000709561957F4F8F4F9F4F9923A9F0F92F39
:1005B00096E9BB279395F695879577956795B795B7
:1005C000F111F8CFFAF4BB0F11F460FF1BC06F5F9D
:1005D0007F4F8F4F9F4F16C0882311F096E911C0AF
:1005E000772321F09EE8872F762F05C0662371F0D0
:1005F00096E8862F70E060E02AF09A95660F771FE4
:10060000881FDAF7880F9695879597F9089597F9D7
:100610009F6780E870E060E008959FEF80EC0895A8
:1006200000240A94161617061806090608950024D1
:100630000A9412161306140605060895092E03944B
:10064000000C11F4882352F0BB0F40F4BF2B11F4BF
:1006500060FF04C06F5F7F4F8F4F9F4F089557FD1E
:100660009058440F551F59F05F3F71F04795880F20
:1006700097FB991F61F09F3F79F0879508951216B7
:1006800013061406551FF2CF4695F1DF08C0161663
:1006900017061806991FF1CF869571056105089414
:1006A0000895E894BB2766277727CB0197F908952B
:1006B000BB274A3031F4992322F4BDE2909581950D
:1006C0009F4F0C946403BB27FB015527AA27880F73
:1006D000991FAA1FA41710F0A41B83955051B9F7B6
:1006E000A05DAA3308F0A95DA193009779F7B11135
:1006F000B1931192CB010C947D03DC01FC01672FB7
:1007000071917723E1F7329704C07C916D937083E8
:0E0710006291AE17BF07C8F30895F894FFCFAB
:10071E00556C747261736F6E6963004469737461B2
:0A072E006E63653D2000636D00005E
:00000001FF
