:100000000C942A000C9434000C9434000C943400AA
:100010000C9434000C9434000C9434000C94340090
:100020000C9434000C9434000C9434000C94340080
:100030000C9434000C9434000C9434000C94340070
:100040000C9434000C9434000C9434000C94340060
:100050000C94340011241FBECFE5D8E0DEBFCDBF25
:100060000E9436000C94DD010C9400000E944300B5
:1000700040E050E060E870E481E090E00E944700DA
:1000800080E090E008958FEF8ABB84BB08958F9243
:100090009F92AF92BF92CF92DF92EF92FF92CF9357
:1000A000DF934A015B010197D9F1C0E0D0E088C03D
:1000B00083E08BBB2FEF31EE94E021503040904035
:1000C000E1F700C0000096E09BBB2FEF31EE94E01B
:1000D000215030409040E1F700C000009CE09BBB05
:1000E0002FEF31EE94E0215030409040E1F700C016
:1000F000000099E09BBB2FEF31EE94E0215030409F
:100100009040E1F700C000008BBB2FEF31EE84E0A0
:10011000215030408040E1F700C00000219602C02D
:10012000C0E0D0E0BE010D2E000C880B990B0E94A0
:1001300008016B017C01C501B4010E9467019B01AC
:10014000AC01C701B6010E94010188230CF4B0CFB5
:100150004DC083E08BBB9FEF21EE34E091502040F7
:100160003040E1F700C0000099E09BBB9FEF21EE1B
:1001700034E0915020403040E1F700C000009CE0A6
:100180009BBB9FEF21EE34E0915020403040E1F7DF
:1001900000C0000096E09BBB9FEF21EE34E0915041
:1001A00020403040E1F700C000008BBB8FEF91EEA4
:1001B00024E0815090402040E1F700C000002196EB
:1001C000BE010D2E000C880B990B0E9408016B01DB
:1001D0007C01C501B4010E9467019B01AC01C7010C
:1001E000B6010E94010188230CF4B3CFDF91CF91B7
:1001F000FF90EF90DF90CF90BF90AF909F908F9047
:1002000008950E94430108F481E00895E89409C02C
:1002100097FB3EF490958095709561957F4F8F4F39
:100220009F4F9923A9F0F92F96E9BB279395F6954F
:10023000879577956795B795F111F8CFFAF4BB0FCD
:1002400011F460FF1BC06F5F7F4F8F4F9F4F16C031
:10025000882311F096E911C0772321F09EE8872FBB
:10026000762F05C0662371F096E8862F70E060E077
:100270002AF09A95660F771F881FDAF7880F9695F0
:10028000879597F90895990F0008550FAA0BE0E894
:10029000FEEF16161706E807F907C0F01216130648
:1002A000E407F50798F0621B730B840B950B39F488
:1002B0000A2661F0232B242B252B21F408950A26EE
:1002C00009F4A140A6958FEF811D811D08950E941C
:1002D000BC01E8F09E37E8F09639B8F49E3848F44F
:1002E000672F782F8827985FF9CF86957795679540
:1002F00093959539D0F3B62FB1706B0F711D811D99
:1003000020F487957795679593950C948B010C94C1
:10031000A6010C94D701882371F4772321F098501B
:10032000872B762F07C0662311F499270DC09051B3
:10033000862B70E060E02AF09A95660F771F881F81
:10034000DAF7880F9695879597F908959F3F31F0D2
:10035000915020F4879577956795B795880F911DF3
:100360009695879597F9089557FD9058440F551F16
:1003700059F05F3F71F04795880F97FB991F61F027
:100380009F3F79F087950895121613061406551F9E
:10039000F2CF4695F1DF08C0161617061806991F0A
:1003A000F1CF86957105610508940895E894BB27FF
:0E03B00066277727CB0197F90895F894FFCFC1
:00000001FF
